{
  "_format": "hh-sol-artifact-1",
  "contractName": "MyEpicNFT",
  "sourceName": "contracts/MyEpicNFT.sol",
  "abi": [
    {
      "inputs": [],
      "stateMutability": "nonpayable",
      "type": "constructor"
    },
    {
      "anonymous": false,
      "inputs": [
        {
          "indexed": true,
          "internalType": "address",
          "name": "owner",
          "type": "address"
        },
        {
          "indexed": true,
          "internalType": "address",
          "name": "approved",
          "type": "address"
        },
        {
          "indexed": true,
          "internalType": "uint256",
          "name": "tokenId",
          "type": "uint256"
        }
      ],
      "name": "Approval",
      "type": "event"
    },
    {
      "anonymous": false,
      "inputs": [
        {
          "indexed": true,
          "internalType": "address",
          "name": "owner",
          "type": "address"
        },
        {
          "indexed": true,
          "internalType": "address",
          "name": "operator",
          "type": "address"
        },
        {
          "indexed": false,
          "internalType": "bool",
          "name": "approved",
          "type": "bool"
        }
      ],
      "name": "ApprovalForAll",
      "type": "event"
    },
    {
      "anonymous": false,
      "inputs": [
        {
          "indexed": false,
          "internalType": "address",
          "name": "sender",
          "type": "address"
        },
        {
          "indexed": false,
          "internalType": "uint256",
          "name": "tokenId",
          "type": "uint256"
        }
      ],
      "name": "NewEpicNFTMinted",
      "type": "event"
    },
    {
      "anonymous": false,
      "inputs": [
        {
          "indexed": true,
          "internalType": "address",
          "name": "from",
          "type": "address"
        },
        {
          "indexed": true,
          "internalType": "address",
          "name": "to",
          "type": "address"
        },
        {
          "indexed": true,
          "internalType": "uint256",
          "name": "tokenId",
          "type": "uint256"
        }
      ],
      "name": "Transfer",
      "type": "event"
    },
    {
      "inputs": [
        {
          "internalType": "address",
          "name": "to",
          "type": "address"
        },
        {
          "internalType": "uint256",
          "name": "tokenId",
          "type": "uint256"
        }
      ],
      "name": "approve",
      "outputs": [],
      "stateMutability": "nonpayable",
      "type": "function"
    },
    {
      "inputs": [
        {
          "internalType": "address",
          "name": "owner",
          "type": "address"
        }
      ],
      "name": "balanceOf",
      "outputs": [
        {
          "internalType": "uint256",
          "name": "",
          "type": "uint256"
        }
      ],
      "stateMutability": "view",
      "type": "function"
    },
    {
      "inputs": [
        {
          "internalType": "uint256",
          "name": "tokenId",
          "type": "uint256"
        }
      ],
      "name": "getApproved",
      "outputs": [
        {
          "internalType": "address",
          "name": "",
          "type": "address"
        }
      ],
      "stateMutability": "view",
      "type": "function"
    },
    {
      "inputs": [
        {
          "internalType": "address",
          "name": "owner",
          "type": "address"
        },
        {
          "internalType": "address",
          "name": "operator",
          "type": "address"
        }
      ],
      "name": "isApprovedForAll",
      "outputs": [
        {
          "internalType": "bool",
          "name": "",
          "type": "bool"
        }
      ],
      "stateMutability": "view",
      "type": "function"
    },
    {
      "inputs": [],
      "name": "makeAnEpicNFT",
      "outputs": [],
      "stateMutability": "nonpayable",
      "type": "function"
    },
    {
      "inputs": [],
      "name": "name",
      "outputs": [
        {
          "internalType": "string",
          "name": "",
          "type": "string"
        }
      ],
      "stateMutability": "view",
      "type": "function"
    },
    {
      "inputs": [
        {
          "internalType": "uint256",
          "name": "tokenId",
          "type": "uint256"
        }
      ],
      "name": "ownerOf",
      "outputs": [
        {
          "internalType": "address",
          "name": "",
          "type": "address"
        }
      ],
      "stateMutability": "view",
      "type": "function"
    },
    {
      "inputs": [
        {
          "internalType": "uint256",
          "name": "tokenId",
          "type": "uint256"
        }
      ],
      "name": "pickRandomWord",
      "outputs": [
        {
          "internalType": "string",
          "name": "",
          "type": "string"
        }
      ],
      "stateMutability": "view",
      "type": "function"
    },
    {
      "inputs": [
        {
          "internalType": "address",
          "name": "from",
          "type": "address"
        },
        {
          "internalType": "address",
          "name": "to",
          "type": "address"
        },
        {
          "internalType": "uint256",
          "name": "tokenId",
          "type": "uint256"
        }
      ],
      "name": "safeTransferFrom",
      "outputs": [],
      "stateMutability": "nonpayable",
      "type": "function"
    },
    {
      "inputs": [
        {
          "internalType": "address",
          "name": "from",
          "type": "address"
        },
        {
          "internalType": "address",
          "name": "to",
          "type": "address"
        },
        {
          "internalType": "uint256",
          "name": "tokenId",
          "type": "uint256"
        },
        {
          "internalType": "bytes",
          "name": "_data",
          "type": "bytes"
        }
      ],
      "name": "safeTransferFrom",
      "outputs": [],
      "stateMutability": "nonpayable",
      "type": "function"
    },
    {
      "inputs": [
        {
          "internalType": "address",
          "name": "operator",
          "type": "address"
        },
        {
          "internalType": "bool",
          "name": "approved",
          "type": "bool"
        }
      ],
      "name": "setApprovalForAll",
      "outputs": [],
      "stateMutability": "nonpayable",
      "type": "function"
    },
    {
      "inputs": [
        {
          "internalType": "bytes4",
          "name": "interfaceId",
          "type": "bytes4"
        }
      ],
      "name": "supportsInterface",
      "outputs": [
        {
          "internalType": "bool",
          "name": "",
          "type": "bool"
        }
      ],
      "stateMutability": "view",
      "type": "function"
    },
    {
      "inputs": [],
      "name": "symbol",
      "outputs": [
        {
          "internalType": "string",
          "name": "",
          "type": "string"
        }
      ],
      "stateMutability": "view",
      "type": "function"
    },
    {
      "inputs": [
        {
          "internalType": "uint256",
          "name": "tokenId",
          "type": "uint256"
        }
      ],
      "name": "tokenURI",
      "outputs": [
        {
          "internalType": "string",
          "name": "",
          "type": "string"
        }
      ],
      "stateMutability": "view",
      "type": "function"
    },
    {
      "inputs": [
        {
          "internalType": "address",
          "name": "from",
          "type": "address"
        },
        {
          "internalType": "address",
          "name": "to",
          "type": "address"
        },
        {
          "internalType": "uint256",
          "name": "tokenId",
          "type": "uint256"
        }
      ],
      "name": "transferFrom",
      "outputs": [],
      "stateMutability": "nonpayable",
      "type": "function"
    }
  ],
  "bytecode": "0x608060405260405180610160016040528061012f815260200162003e3961012f9139600890805190602001906200003892919062000520565b50604051806101a001604052806040518060400160405280600e81526020017f696e66726173747275637475726500000000000000000000000000000000000081525081526020016040518060400160405280600e81526020017f6469736372696d696e6174696f6e00000000000000000000000000000000000081525081526020016040518060400160405280600e81526020017f7375706572696e74656e64656e7400000000000000000000000000000000000081525081526020016040518060400160405280600e81526020017f6964656e74696669636174696f6e00000000000000000000000000000000000081525081526020016040518060400160405280600e81526020017f726573706f6e736962696c69747900000000000000000000000000000000000081525081526020016040518060400160405280600e81526020017f636f6e737469747574696f6e616c00000000000000000000000000000000000081525081526020016040518060400160405280600e81526020017f726570726573656e74617469766500000000000000000000000000000000000081525081526020016040518060400160405280600e81526020017f636861726163746572697374696300000000000000000000000000000000000081525081526020016040518060400160405280600e81526020017f7265686162696c69746174696f6e00000000000000000000000000000000000081525081526020016040518060400160405280600e81526020017f636f72726573706f6e64656e636500000000000000000000000000000000000081525081526020016040518060400160405280600e81526020017f6469736170706f696e746d656e7400000000000000000000000000000000000081525081526020016040518060400160405280600e81526020017f7265636f6d6d656e646174696f6e00000000000000000000000000000000000081525081526020016040518060400160405280600e81526020017f61646d696e697374726174696f6e000000000000000000000000000000000000815250815250600990600d62000354929190620005b1565b503480156200036257600080fd5b506040518060400160405280600981526020017f5371756172654e465400000000000000000000000000000000000000000000008152506040518060400160405280600581526020017f53514e46540000000000000000000000000000000000000000000000000000008152508160009080519060200190620003e792919062000520565b5080600190805190602001906200040092919062000520565b5050506200044e6040518060400160405280601e81526020017f54686973206973206d79206669727374204e465420636f6e74726163742100008152506200045460201b62000de61760201c565b620007d2565b620004f4816040516024016200046b9190620006e6565b6040516020818303038152906040527f41304fac000000000000000000000000000000000000000000000000000000007bffffffffffffffffffffffffffffffffffffffffffffffffffffffff19166020820180517bffffffffffffffffffffffffffffffffffffffffffffffffffffffff8381831617835250505050620004f760201b60201c565b50565b60008151905060006a636f6e736f6c652e6c6f679050602083016000808483855afa5050505050565b8280546200052e906200075c565b90600052602060002090601f0160209004810192826200055257600085556200059e565b82601f106200056d57805160ff19168380011785556200059e565b828001600101855582156200059e579182015b828111156200059d57825182559160200191906001019062000580565b5b509050620005ad919062000618565b5090565b82805482825590600052602060002090810192821562000605579160200282015b8281111562000604578251829080519060200190620005f392919062000520565b5091602001919060010190620005d2565b5b50905062000614919062000637565b5090565b5b808211156200063357600081600090555060010162000619565b5090565b5b808211156200065b57600081816200065191906200065f565b5060010162000638565b5090565b5080546200066d906200075c565b6000825580601f10620006815750620006a2565b601f016020900490600052602060002090810190620006a1919062000618565b5b50565b6000620006b2826200070a565b620006be818562000715565b9350620006d081856020860162000726565b620006db81620007c1565b840191505092915050565b60006020820190508181036000830152620007028184620006a5565b905092915050565b600081519050919050565b600082825260208201905092915050565b60005b838110156200074657808201518184015260208101905062000729565b8381111562000756576000848401525b50505050565b600060028204905060018216806200077557607f821691505b602082108114156200078c576200078b62000792565b5b50919050565b7f4e487b7100000000000000000000000000000000000000000000000000000000600052602260045260246000fd5b6000601f19601f8301169050919050565b61365780620007e26000396000f3fe608060405234801561001057600080fd5b50600436106100f55760003560e01c80636352211e11610097578063b88d4fde11610066578063b88d4fde14610296578063c87b56dd146102b2578063de9d132f146102e2578063e985e9c5146102ec576100f5565b80636352211e146101fc57806370a082311461022c57806395d89b411461025c578063a22cb4651461027a576100f5565b8063095ea7b3116100d3578063095ea7b31461017857806323b872dd146101945780633e1831dd146101b057806342842e0e146101e0576100f5565b806301ffc9a7146100fa57806306fdde031461012a578063081812fc14610148575b600080fd5b610114600480360381019061010f91906121de565b61031c565b6040516101219190612872565b60405180910390f35b6101326103fe565b60405161013f919061288d565b60405180910390f35b610162600480360381019061015d9190612230565b610490565b60405161016f91906127e2565b60405180910390f35b610192600480360381019061018d91906121a2565b610515565b005b6101ae60048036038101906101a9919061209c565b61062d565b005b6101ca60048036038101906101c59190612230565b61068d565b6040516101d7919061288d565b60405180910390f35b6101fa60048036038101906101f5919061209c565b6107ab565b005b61021660048036038101906102119190612230565b6107cb565b60405161022391906127e2565b60405180910390f35b61024660048036038101906102419190612037565b61087d565b6040516102539190612aed565b60405180910390f35b610264610935565b604051610271919061288d565b60405180910390f35b610294600480360381019061028f9190612166565b6109c7565b005b6102b060048036038101906102ab91906120eb565b6109dd565b005b6102cc60048036038101906102c79190612230565b610a3f565b6040516102d9919061288d565b60405180910390f35b6102ea610b91565b005b61030660048036038101906103019190612060565b610d52565b6040516103139190612872565b60405180910390f35b60007f80ac58cd000000000000000000000000000000000000000000000000000000007bffffffffffffffffffffffffffffffffffffffffffffffffffffffff1916827bffffffffffffffffffffffffffffffffffffffffffffffffffffffff191614806103e757507f5b5e139f000000000000000000000000000000000000000000000000000000007bffffffffffffffffffffffffffffffffffffffffffffffffffffffff1916827bffffffffffffffffffffffffffffffffffffffffffffffffffffffff1916145b806103f757506103f682610e7f565b5b9050919050565b60606000805461040d90612d81565b80601f016020809104026020016040519081016040528092919081815260200182805461043990612d81565b80156104865780601f1061045b57610100808354040283529160200191610486565b820191906000526020600020905b81548152906001019060200180831161046957829003601f168201915b5050505050905090565b600061049b82610ee9565b6104da576040517f08c379a00000000000000000000000000000000000000000000000000000000081526004016104d190612a6d565b60405180910390fd5b6004600083815260200190815260200160002060009054906101000a900473ffffffffffffffffffffffffffffffffffffffff169050919050565b6000610520826107cb565b90508073ffffffffffffffffffffffffffffffffffffffff168373ffffffffffffffffffffffffffffffffffffffff161415610591576040517f08c379a000000000000000000000000000000000000000000000000000000000815260040161058890612aad565b60405180910390fd5b8073ffffffffffffffffffffffffffffffffffffffff166105b0610f55565b73ffffffffffffffffffffffffffffffffffffffff1614806105df57506105de816105d9610f55565b610d52565b5b61061e576040517f08c379a0000000000000000000000000000000000000000000000000000000008152600401610615906129ad565b60405180910390fd5b6106288383610f5d565b505050565b61063e610638610f55565b82611016565b61067d576040517f08c379a000000000000000000000000000000000000000000000000000000000815260040161067490612acd565b60405180910390fd5b6106888383836110f4565b505050565b606060006106c161069d8461135b565b6040516020016106ad9190612759565b604051602081830303815290604052611508565b9050600980549050816106d49190612e2d565b905060098181548110610710577f4e487b7100000000000000000000000000000000000000000000000000000000600052603260045260246000fd5b90600052602060002001805461072590612d81565b80601f016020809104026020016040519081016040528092919081815260200182805461075190612d81565b801561079e5780601f106107735761010080835404028352916020019161079e565b820191906000526020600020905b81548152906001019060200180831161078157829003601f168201915b5050505050915050919050565b6107c6838383604051806020016040528060008152506109dd565b505050565b6000806002600084815260200190815260200160002060009054906101000a900473ffffffffffffffffffffffffffffffffffffffff169050600073ffffffffffffffffffffffffffffffffffffffff168173ffffffffffffffffffffffffffffffffffffffff161415610874576040517f08c379a000000000000000000000000000000000000000000000000000000000815260040161086b906129ed565b60405180910390fd5b80915050919050565b60008073ffffffffffffffffffffffffffffffffffffffff168273ffffffffffffffffffffffffffffffffffffffff1614156108ee576040517f08c379a00000000000000000000000000000000000000000000000000000000081526004016108e5906129cd565b60405180910390fd5b600360008373ffffffffffffffffffffffffffffffffffffffff1673ffffffffffffffffffffffffffffffffffffffff168152602001908152602001600020549050919050565b60606001805461094490612d81565b80601f016020809104026020016040519081016040528092919081815260200182805461097090612d81565b80156109bd5780601f10610992576101008083540402835291602001916109bd565b820191906000526020600020905b8154815290600101906020018083116109a057829003601f168201915b5050505050905090565b6109d96109d2610f55565b838361153b565b5050565b6109ee6109e8610f55565b83611016565b610a2d576040517f08c379a0000000000000000000000000000000000000000000000000000000008152600401610a2490612acd565b60405180910390fd5b610a39848484846116a8565b50505050565b6060610a4a82610ee9565b610a89576040517f08c379a0000000000000000000000000000000000000000000000000000000008152600401610a8090612a4d565b60405180910390fd5b6000600660008481526020019081526020016000208054610aa990612d81565b80601f0160208091040260200160405190810160405280929190818152602001828054610ad590612d81565b8015610b225780601f10610af757610100808354040283529160200191610b22565b820191906000526020600020905b815481529060010190602001808311610b0557829003601f168201915b505050505090506000610b33611704565b9050600081511415610b49578192505050610b8c565b600082511115610b7e578082604051602001610b669291906126e4565b60405160208183030381529060405292505050610b8c565b610b878461171b565b925050505b919050565b6000610b9d60076117c2565b90506000610baa8261068d565b90506000600882604051602001610bc2929190612708565b60405160208183030381529060405290506000610c0783610be2846117d0565b604051602001610bf392919061277b565b6040516020818303038152906040526117d0565b9050600081604051602001610c1c91906127c0565b6040516020818303038152906040529050610c6b6040518060400160405280601581526020017f0a2d2d2d2d2d2d2d2d2d2d2d2d2d2d2d2d2d2d2d2d0000000000000000000000815250610de6565b610c9381604051602001610c7f9190612737565b604051602081830303815290604052610de6565b610cd16040518060400160405280601581526020017f2d2d2d2d2d2d2d2d2d2d2d2d2d2d2d2d2d2d2d2d0a0000000000000000000000815250610de6565b610cdb338661195a565b610ce58582611978565b610cef60076119ec565b610d126040518060600160405280602581526020016135bd602591398633611a02565b7febb98688741ffa4c7589bf325de30cf7becb63de567842e1ccdb6cb949fdc82c3386604051610d43929190612849565b60405180910390a15050505050565b6000600560008473ffffffffffffffffffffffffffffffffffffffff1673ffffffffffffffffffffffffffffffffffffffff16815260200190815260200160002060008373ffffffffffffffffffffffffffffffffffffffff1673ffffffffffffffffffffffffffffffffffffffff16815260200190815260200160002060009054906101000a900460ff16905092915050565b610e7c81604051602401610dfa919061288d565b6040516020818303038152906040527f41304fac000000000000000000000000000000000000000000000000000000007bffffffffffffffffffffffffffffffffffffffffffffffffffffffff19166020820180517bffffffffffffffffffffffffffffffffffffffffffffffffffffffff8381831617835250505050611aa1565b50565b60007f01ffc9a7000000000000000000000000000000000000000000000000000000007bffffffffffffffffffffffffffffffffffffffffffffffffffffffff1916827bffffffffffffffffffffffffffffffffffffffffffffffffffffffff1916149050919050565b60008073ffffffffffffffffffffffffffffffffffffffff166002600084815260200190815260200160002060009054906101000a900473ffffffffffffffffffffffffffffffffffffffff1673ffffffffffffffffffffffffffffffffffffffff1614159050919050565b600033905090565b816004600083815260200190815260200160002060006101000a81548173ffffffffffffffffffffffffffffffffffffffff021916908373ffffffffffffffffffffffffffffffffffffffff160217905550808273ffffffffffffffffffffffffffffffffffffffff16610fd0836107cb565b73ffffffffffffffffffffffffffffffffffffffff167f8c5be1e5ebec7d5bd14f71427d1e84f3dd0314c0f7b2291e5b200ac8c7c3b92560405160405180910390a45050565b600061102182610ee9565b611060576040517f08c379a00000000000000000000000000000000000000000000000000000000081526004016110579061298d565b60405180910390fd5b600061106b836107cb565b90508073ffffffffffffffffffffffffffffffffffffffff168473ffffffffffffffffffffffffffffffffffffffff1614806110da57508373ffffffffffffffffffffffffffffffffffffffff166110c284610490565b73ffffffffffffffffffffffffffffffffffffffff16145b806110eb57506110ea8185610d52565b5b91505092915050565b8273ffffffffffffffffffffffffffffffffffffffff16611114826107cb565b73ffffffffffffffffffffffffffffffffffffffff161461116a576040517f08c379a00000000000000000000000000000000000000000000000000000000081526004016111619061290d565b60405180910390fd5b600073ffffffffffffffffffffffffffffffffffffffff168273ffffffffffffffffffffffffffffffffffffffff1614156111da576040517f08c379a00000000000000000000000000000000000000000000000000000000081526004016111d19061294d565b60405180910390fd5b6111e5838383611aca565b6111f0600082610f5d565b6001600360008573ffffffffffffffffffffffffffffffffffffffff1673ffffffffffffffffffffffffffffffffffffffff16815260200190815260200160002060008282546112409190612c97565b925050819055506001600360008473ffffffffffffffffffffffffffffffffffffffff1673ffffffffffffffffffffffffffffffffffffffff16815260200190815260200160002060008282546112979190612bb6565b92505081905550816002600083815260200190815260200160002060006101000a81548173ffffffffffffffffffffffffffffffffffffffff021916908373ffffffffffffffffffffffffffffffffffffffff160217905550808273ffffffffffffffffffffffffffffffffffffffff168473ffffffffffffffffffffffffffffffffffffffff167fddf252ad1be2c89b69c2b068fc378daa952ba7f163c4a11628f55a4df523b3ef60405160405180910390a4611356838383611acf565b505050565b606060008214156113a3576040518060400160405280600181526020017f30000000000000000000000000000000000000000000000000000000000000008152509050611503565b600082905060005b600082146113d55780806113be90612de4565b915050600a826113ce9190612c0c565b91506113ab565b60008167ffffffffffffffff811115611417577f4e487b7100000000000000000000000000000000000000000000000000000000600052604160045260246000fd5b6040519080825280601f01601f1916602001820160405280156114495781602001600182028036833780820191505090505b5090505b600085146114fc576001826114629190612c97565b9150600a856114719190612e2d565b603061147d9190612bb6565b60f81b8183815181106114b9577f4e487b7100000000000000000000000000000000000000000000000000000000600052603260045260246000fd5b60200101907effffffffffffffffffffffffffffffffffffffffffffffffffffffffffffff1916908160001a905350600a856114f59190612c0c565b945061144d565b8093505050505b919050565b60008160405160200161151b91906126cd565b6040516020818303038152906040528051906020012060001c9050919050565b8173ffffffffffffffffffffffffffffffffffffffff168373ffffffffffffffffffffffffffffffffffffffff1614156115aa576040517f08c379a00000000000000000000000000000000000000000000000000000000081526004016115a19061296d565b60405180910390fd5b80600560008573ffffffffffffffffffffffffffffffffffffffff1673ffffffffffffffffffffffffffffffffffffffff16815260200190815260200160002060008473ffffffffffffffffffffffffffffffffffffffff1673ffffffffffffffffffffffffffffffffffffffff16815260200190815260200160002060006101000a81548160ff0219169083151502179055508173ffffffffffffffffffffffffffffffffffffffff168373ffffffffffffffffffffffffffffffffffffffff167f17307eab39ab6107e8899845ad3d59bd9653f200f220920489ca2b5937696c318360405161169b9190612872565b60405180910390a3505050565b6116b38484846110f4565b6116bf84848484611ad4565b6116fe576040517f08c379a00000000000000000000000000000000000000000000000000000000081526004016116f5906128ed565b60405180910390fd5b50505050565b606060405180602001604052806000815250905090565b606061172682610ee9565b611765576040517f08c379a000000000000000000000000000000000000000000000000000000000815260040161175c90612a8d565b60405180910390fd5b600061176f611704565b9050600081511161178f57604051806020016040528060008152506117ba565b806117998461135b565b6040516020016117aa9291906126e4565b6040516020818303038152906040525b915050919050565b600081600001549050919050565b60606000825114156117f357604051806020016040528060008152509050611955565b60006040518060600160405280604081526020016135e260409139905060006003600285516118229190612bb6565b61182c9190612c0c565b60046118389190612c3d565b67ffffffffffffffff811115611877577f4e487b7100000000000000000000000000000000000000000000000000000000600052604160045260246000fd5b6040519080825280601f01601f1916602001820160405280156118a95781602001600182028036833780820191505090505b509050600182016020820185865187015b80821015611915576003820191508151603f8160121c168501518453600184019350603f81600c1c168501518453600184019350603f8160061c168501518453600184019350603f81168501518453600184019350506118ba565b505060038651066001811461193157600281146119445761194c565b603d6001830353603d600283035361194c565b603d60018303535b50505080925050505b919050565b611974828260405180602001604052806000815250611c6b565b5050565b61198182610ee9565b6119c0576040517f08c379a00000000000000000000000000000000000000000000000000000000081526004016119b790612a0d565b60405180910390fd5b806006600084815260200190815260200160002090805190602001906119e7929190611ec3565b505050565b6001816000016000828254019250508190555050565b611a9c838383604051602401611a1a939291906128af565b6040516020818303038152906040527fe3849f79000000000000000000000000000000000000000000000000000000007bffffffffffffffffffffffffffffffffffffffffffffffffffffffff19166020820180517bffffffffffffffffffffffffffffffffffffffffffffffffffffffff8381831617835250505050611aa1565b505050565b60008151905060006a636f6e736f6c652e6c6f679050602083016000808483855afa5050505050565b505050565b505050565b6000611af58473ffffffffffffffffffffffffffffffffffffffff16611cc6565b15611c5e578373ffffffffffffffffffffffffffffffffffffffff1663150b7a02611b1e610f55565b8786866040518563ffffffff1660e01b8152600401611b4094939291906127fd565b602060405180830381600087803b158015611b5a57600080fd5b505af1925050508015611b8b57506040513d601f19601f82011682018060405250810190611b889190612207565b60015b611c0e573d8060008114611bbb576040519150601f19603f3d011682016040523d82523d6000602084013e611bc0565b606091505b50600081511415611c06576040517f08c379a0000000000000000000000000000000000000000000000000000000008152600401611bfd906128ed565b60405180910390fd5b805181602001fd5b63150b7a0260e01b7bffffffffffffffffffffffffffffffffffffffffffffffffffffffff1916817bffffffffffffffffffffffffffffffffffffffffffffffffffffffff191614915050611c63565b600190505b949350505050565b611c758383611ce9565b611c826000848484611ad4565b611cc1576040517f08c379a0000000000000000000000000000000000000000000000000000000008152600401611cb8906128ed565b60405180910390fd5b505050565b6000808273ffffffffffffffffffffffffffffffffffffffff163b119050919050565b600073ffffffffffffffffffffffffffffffffffffffff168273ffffffffffffffffffffffffffffffffffffffff161415611d59576040517f08c379a0000000000000000000000000000000000000000000000000000000008152600401611d5090612a2d565b60405180910390fd5b611d6281610ee9565b15611da2576040517f08c379a0000000000000000000000000000000000000000000000000000000008152600401611d999061292d565b60405180910390fd5b611dae60008383611aca565b6001600360008473ffffffffffffffffffffffffffffffffffffffff1673ffffffffffffffffffffffffffffffffffffffff1681526020019081526020016000206000828254611dfe9190612bb6565b92505081905550816002600083815260200190815260200160002060006101000a81548173ffffffffffffffffffffffffffffffffffffffff021916908373ffffffffffffffffffffffffffffffffffffffff160217905550808273ffffffffffffffffffffffffffffffffffffffff16600073ffffffffffffffffffffffffffffffffffffffff167fddf252ad1be2c89b69c2b068fc378daa952ba7f163c4a11628f55a4df523b3ef60405160405180910390a4611ebf60008383611acf565b5050565b828054611ecf90612d81565b90600052602060002090601f016020900481019282611ef15760008555611f38565b82601f10611f0a57805160ff1916838001178555611f38565b82800160010185558215611f38579182015b82811115611f37578251825591602001919060010190611f1c565b5b509050611f459190611f49565b5090565b5b80821115611f62576000816000905550600101611f4a565b5090565b6000611f79611f7484612b2d565b612b08565b905082815260208101848484011115611f9157600080fd5b611f9c848285612d3f565b509392505050565b600081359050611fb381613560565b92915050565b600081359050611fc881613577565b92915050565b600081359050611fdd8161358e565b92915050565b600081519050611ff28161358e565b92915050565b600082601f83011261200957600080fd5b8135612019848260208601611f66565b91505092915050565b600081359050612031816135a5565b92915050565b60006020828403121561204957600080fd5b600061205784828501611fa4565b91505092915050565b6000806040838503121561207357600080fd5b600061208185828601611fa4565b925050602061209285828601611fa4565b9150509250929050565b6000806000606084860312156120b157600080fd5b60006120bf86828701611fa4565b93505060206120d086828701611fa4565b92505060406120e186828701612022565b9150509250925092565b6000806000806080858703121561210157600080fd5b600061210f87828801611fa4565b945050602061212087828801611fa4565b935050604061213187828801612022565b925050606085013567ffffffffffffffff81111561214e57600080fd5b61215a87828801611ff8565b91505092959194509250565b6000806040838503121561217957600080fd5b600061218785828601611fa4565b925050602061219885828601611fb9565b9150509250929050565b600080604083850312156121b557600080fd5b60006121c385828601611fa4565b92505060206121d485828601612022565b9150509250929050565b6000602082840312156121f057600080fd5b60006121fe84828501611fce565b91505092915050565b60006020828403121561221957600080fd5b600061222784828501611fe3565b91505092915050565b60006020828403121561224257600080fd5b600061225084828501612022565b91505092915050565b61226281612ccb565b82525050565b61227181612cdd565b82525050565b600061228282612b73565b61228c8185612b89565b935061229c818560208601612d4e565b6122a581612f1a565b840191505092915050565b60006122bb82612b7e565b6122c58185612b9a565b93506122d5818560208601612d4e565b6122de81612f1a565b840191505092915050565b60006122f482612b7e565b6122fe8185612bab565b935061230e818560208601612d4e565b80840191505092915050565b6000815461232781612d81565b6123318186612bab565b9450600182166000811461234c576001811461235d57612390565b60ff19831686528186019350612390565b61236685612b5e565b60005b8381101561238857815481890152600182019150602081019050612369565b838801955050505b50505092915050565b60006123a6602583612bab565b91506123b182612f2b565b602582019050919050565b60006123c9603283612b9a565b91506123d482612f7a565b604082019050919050565b60006123ec602583612b9a565b91506123f782612fc9565b604082019050919050565b600061240f601c83612b9a565b915061241a82613018565b602082019050919050565b6000612432602483612b9a565b915061243d82613041565b604082019050919050565b6000612455601983612b9a565b915061246082613090565b602082019050919050565b6000612478606383612bab565b9150612483826130b9565b606382019050919050565b600061249b600483612bab565b91506124a682613154565b600482019050919050565b60006124be602c83612b9a565b91506124c98261317d565b604082019050919050565b60006124e1600d83612bab565b91506124ec826131cc565b600d82019050919050565b6000612504603883612b9a565b915061250f826131f5565b604082019050919050565b6000612527602a83612b9a565b915061253282613244565b604082019050919050565b600061254a602983612b9a565b915061255582613293565b604082019050919050565b600061256d602e83612b9a565b9150612578826132e2565b604082019050919050565b6000612590600283612bab565b915061259b82613331565b600282019050919050565b60006125b3602083612b9a565b91506125be8261335a565b602082019050919050565b60006125d6603183612b9a565b91506125e182613383565b604082019050919050565b60006125f9602c83612b9a565b9150612604826133d2565b604082019050919050565b600061261c602f83612b9a565b915061262782613421565b604082019050919050565b600061263f600a83612bab565b915061264a82613470565b600a82019050919050565b6000612662602183612b9a565b915061266d82613499565b604082019050919050565b6000612685601d83612bab565b9150612690826134e8565b601d82019050919050565b60006126a8603183612b9a565b91506126b382613511565b604082019050919050565b6126c781612d35565b82525050565b60006126d982846122e9565b915081905092915050565b60006126f082856122e9565b91506126fc82846122e9565b91508190509392505050565b6000612714828561231a565b915061272082846122e9565b915061272b826124d4565b91508190509392505050565b600061274282612399565b915061274e82846122e9565b915081905092915050565b60006127648261248e565b915061277082846122e9565b915081905092915050565b600061278682612632565b915061279282856122e9565b915061279d8261246b565b91506127a982846122e9565b91506127b482612583565b91508190509392505050565b60006127cb82612678565b91506127d782846122e9565b915081905092915050565b60006020820190506127f76000830184612259565b92915050565b60006080820190506128126000830187612259565b61281f6020830186612259565b61282c60408301856126be565b818103606083015261283e8184612277565b905095945050505050565b600060408201905061285e6000830185612259565b61286b60208301846126be565b9392505050565b60006020820190506128876000830184612268565b92915050565b600060208201905081810360008301526128a781846122b0565b905092915050565b600060608201905081810360008301526128c981866122b0565b90506128d860208301856126be565b6128e56040830184612259565b949350505050565b60006020820190508181036000830152612906816123bc565b9050919050565b60006020820190508181036000830152612926816123df565b9050919050565b6000602082019050818103600083015261294681612402565b9050919050565b6000602082019050818103600083015261296681612425565b9050919050565b6000602082019050818103600083015261298681612448565b9050919050565b600060208201905081810360008301526129a6816124b1565b9050919050565b600060208201905081810360008301526129c6816124f7565b9050919050565b600060208201905081810360008301526129e68161251a565b9050919050565b60006020820190508181036000830152612a068161253d565b9050919050565b60006020820190508181036000830152612a2681612560565b9050919050565b60006020820190508181036000830152612a46816125a6565b9050919050565b60006020820190508181036000830152612a66816125c9565b9050919050565b60006020820190508181036000830152612a86816125ec565b9050919050565b60006020820190508181036000830152612aa68161260f565b9050919050565b60006020820190508181036000830152612ac681612655565b9050919050565b60006020820190508181036000830152612ae68161269b565b9050919050565b6000602082019050612b0260008301846126be565b92915050565b6000612b12612b23565b9050612b1e8282612db3565b919050565b6000604051905090565b600067ffffffffffffffff821115612b4857612b47612eeb565b5b612b5182612f1a565b9050602081019050919050565b60008190508160005260206000209050919050565b600081519050919050565b600081519050919050565b600082825260208201905092915050565b600082825260208201905092915050565b600081905092915050565b6000612bc182612d35565b9150612bcc83612d35565b9250827fffffffffffffffffffffffffffffffffffffffffffffffffffffffffffffffff03821115612c0157612c00612e5e565b5b828201905092915050565b6000612c1782612d35565b9150612c2283612d35565b925082612c3257612c31612e8d565b5b828204905092915050565b6000612c4882612d35565b9150612c5383612d35565b9250817fffffffffffffffffffffffffffffffffffffffffffffffffffffffffffffffff0483118215151615612c8c57612c8b612e5e565b5b828202905092915050565b6000612ca282612d35565b9150612cad83612d35565b925082821015612cc057612cbf612e5e565b5b828203905092915050565b6000612cd682612d15565b9050919050565b60008115159050919050565b60007fffffffff0000000000000000000000000000000000000000000000000000000082169050919050565b600073ffffffffffffffffffffffffffffffffffffffff82169050919050565b6000819050919050565b82818337600083830152505050565b60005b83811015612d6c578082015181840152602081019050612d51565b83811115612d7b576000848401525b50505050565b60006002820490506001821680612d9957607f821691505b60208210811415612dad57612dac612ebc565b5b50919050565b612dbc82612f1a565b810181811067ffffffffffffffff82111715612ddb57612dda612eeb565b5b80604052505050565b6000612def82612d35565b91507fffffffffffffffffffffffffffffffffffffffffffffffffffffffffffffffff821415612e2257612e21612e5e565b5b600182019050919050565b6000612e3882612d35565b9150612e4383612d35565b925082612e5357612e52612e8d565b5b828206905092915050565b7f4e487b7100000000000000000000000000000000000000000000000000000000600052601160045260246000fd5b7f4e487b7100000000000000000000000000000000000000000000000000000000600052601260045260246000fd5b7f4e487b7100000000000000000000000000000000000000000000000000000000600052602260045260246000fd5b7f4e487b7100000000000000000000000000000000000000000000000000000000600052604160045260246000fd5b6000601f19601f8301169050919050565b7f68747470733a2f2f6e6674707265766965772e30786465762e636f6465732f3f60008201527f636f64653d000000000000000000000000000000000000000000000000000000602082015250565b7f4552433732313a207472616e7366657220746f206e6f6e20455243373231526560008201527f63656976657220696d706c656d656e7465720000000000000000000000000000602082015250565b7f4552433732313a207472616e736665722066726f6d20696e636f72726563742060008201527f6f776e6572000000000000000000000000000000000000000000000000000000602082015250565b7f4552433732313a20746f6b656e20616c7265616479206d696e74656400000000600082015250565b7f4552433732313a207472616e7366657220746f20746865207a65726f2061646460008201527f7265737300000000000000000000000000000000000000000000000000000000602082015250565b7f4552433732313a20617070726f766520746f2063616c6c657200000000000000600082015250565b7f222c20226465736372697074696f6e223a20224120686967686c79206163636c60008201527f61696d656420636f6c6c656374696f6e206f6620737175617265732e222c202260208201527f696d616765223a2022646174613a696d6167652f7376672b786d6c3b6261736560408201527f36342c0000000000000000000000000000000000000000000000000000000000606082015250565b7f574f524400000000000000000000000000000000000000000000000000000000600082015250565b7f4552433732313a206f70657261746f7220717565727920666f72206e6f6e657860008201527f697374656e7420746f6b656e0000000000000000000000000000000000000000602082015250565b7f3c2f746578743e3c2f7376673e00000000000000000000000000000000000000600082015250565b7f4552433732313a20617070726f76652063616c6c6572206973206e6f74206f7760008201527f6e6572206e6f7220617070726f76656420666f7220616c6c0000000000000000602082015250565b7f4552433732313a2062616c616e636520717565727920666f7220746865207a6560008201527f726f206164647265737300000000000000000000000000000000000000000000602082015250565b7f4552433732313a206f776e657220717565727920666f72206e6f6e657869737460008201527f656e7420746f6b656e0000000000000000000000000000000000000000000000602082015250565b7f45524337323155524953746f726167653a2055524920736574206f66206e6f6e60008201527f6578697374656e7420746f6b656e000000000000000000000000000000000000602082015250565b7f227d000000000000000000000000000000000000000000000000000000000000600082015250565b7f4552433732313a206d696e7420746f20746865207a65726f2061646472657373600082015250565b7f45524337323155524953746f726167653a2055524920717565727920666f722060008201527f6e6f6e6578697374656e7420746f6b656e000000000000000000000000000000602082015250565b7f4552433732313a20617070726f76656420717565727920666f72206e6f6e657860008201527f697374656e7420746f6b656e0000000000000000000000000000000000000000602082015250565b7f4552433732314d657461646174613a2055524920717565727920666f72206e6f60008201527f6e6578697374656e7420746f6b656e0000000000000000000000000000000000602082015250565b7f7b226e616d65223a202200000000000000000000000000000000000000000000600082015250565b7f4552433732313a20617070726f76616c20746f2063757272656e74206f776e6560008201527f7200000000000000000000000000000000000000000000000000000000000000602082015250565b7f646174613a6170706c69636174696f6e2f6a736f6e3b6261736536342c000000600082015250565b7f4552433732313a207472616e736665722063616c6c6572206973206e6f74206f60008201527f776e6572206e6f7220617070726f766564000000000000000000000000000000602082015250565b61356981612ccb565b811461357457600080fd5b50565b61358081612cdd565b811461358b57600080fd5b50565b61359781612ce9565b81146135a257600080fd5b50565b6135ae81612d35565b81146135b957600080fd5b5056fe416e204e465420772f20494420257320686173206265656e206d696e74656420746f2025734142434445464748494a4b4c4d4e4f505152535455565758595a6162636465666768696a6b6c6d6e6f707172737475767778797a303132333435363738392b2fa2646970667358221220d8bce64a1b6b5b9b79438c80717c827d37b63261900b3ee318189908f61e75df64736f6c634300080100333c73766720786d6c6e733d27687474703a2f2f7777772e77332e6f72672f323030302f73766727207072657365727665417370656374526174696f3d27784d696e594d696e206d656574272076696577426f783d273020302033353020333530273e3c7374796c653e2e62617365207b2066696c6c3a2077686974653b20666f6e742d66616d696c793a2073657269663b20666f6e742d73697a653a20323470783b207d3c2f7374796c653e3c726563742077696474683d273130302527206865696768743d2731303025272066696c6c3d27626c61636b27202f3e3c7465787420783d273530252720793d273530252720636c6173733d27626173652720646f6d696e616e742d626173656c696e653d276d6964646c652720746578742d616e63686f723d276d6964646c65273e",
  "linkReferences": {},
  "deployedLinkReferences": {}
}